:030000000209E60C
:0C09E600787FE4F6D8FD75816B020A2DC5
:100B4D00313233343536373839313233343536374F
:100B5D0000656E63727970742073756D20697320F2
:100B6D0025756C200D0A00656E63727970742064B2
:100B7D006174612069733A202573200D0A00646544
:100B8D00637279707420646174612069733A2025F1
:050B9D0073200D0A00A9
:050BC5000308FF0B4DC9
:100BA2007598504389205389EF758DFA758BFA43F6
:090BB2008780D28EC299C29822FC
:0A0BBB008F993099FDC2997F002246
:06035F008B2E8A2F89306D
:100365001207CA8F378E368D358C349000041207EC
:10037500EA8F3B8E3A8D398C38E4F53FF53EF53DF5
:10038500F53C7547B975467975453775449EAB316A
:10039500AA32A9331207CA8F4B8E4A8D498C4890D1
:1003A50000041207EA8F4F8E4E8D4D8C4C9000083D
:1003B5001207EA8F538E528D518C5090000C120704
:1003C500EA8F578E568D558C54E4F543F542F54129
:1003D500F540E47F20FEFDFCAB43AA42A941A840BD
:1003E500C31207934003020531E53F2547F53FE575
:1003F5003E3546F53EE53D3545F53DE53C3544F5AF
:100405003CAF3BAE3AAD39AC3878041207B7EF25AF
:100415004BFBEE354AFAED3549F9EC3548F8E53B45
:10042500253FFFE53A353EFEE539353DFDE53835F5
:100435003CFCEB6FFFEA6EFEE96DFDE86CFCC00469
:10044500C005C006C007AF3BAE3AAD39AC3878053C
:100455001207A4EF254FFFEE354EFEED354DFDECB1
:10046500354CFCD003D002D001D000EF6BFFEE6A13
:10047500FEED69FDEC68FCE5372FF537E5363EF511
:1004850036E5353DF535E5343CF534AF37AE36ADBB
:1004950035FC78041207B7EF2553FBEE3552FAED1C
:1004A5003551F9EC3550F8E537253FFFE536353E52
:1004B500FEE535353DFDE534353CFCEB6FFFEA6E79
:1004C500FEE96DFDE86CFCC004C005C006C007AFC1
:1004D50037AE36AD35AC3478051207A4EF2557FF96
:1004E500EE3556FEED3555FDEC3554FCD003D00206
:1004F500D001D000EF6BFFEE6AFEED69FDEC68FC04
:10050500E53B2FF53BE53A3EF53AE5393DF539E56D
:10051500383CF538E5432401F543E43542F542E43A
:100525003541F541E43540F5400203D7AF37AE36E6
:10053500AD35AC34AB2EAA2FA93012081AAF3BAE9D
:100545003AAD39AC38AB2EAA2FA930900004120869
:10055500347BFF7A0B795E853F5E853E5D853D5C2C
:06056500853C5B0200650D
:0A093E008B228A2389248C258D2644
:10094800E4F52AF52BF52CF52DE5265407FF603C38
:10095800E4F52AF52BEFFDC374089DFDE49400FC33
:10096800C3E52B9DE52A9C5023AB22AA23A9240585
:1009780026E526AC257002052514F5828C83E41241
:100988000771052BE52B70CD052A80C9E526AE2514
:100998007803CEC313CE13D8F9F52D8E2CE4F52A9F
:1009A800F52BC3E52B952DE52A952C502CE52BAE80
:1009B8002A7803C333CE33CED8F9AB222524F9E500
:1009C800233EFA85273185283285293312035F05AE
:0D09D8002BE52B70CD052A80C9AE25AF267A
:0109E50022EF
:06056B008B2E8A2F89305F
:100571001207CA8F378E368D358C349000041207DE
:10058100EA8F3B8E3A8D398C38753F20753E377531
:100591003DEF753CC6E4F543F542F541F54075473D
:1005A100B975467975453775449EAB31AA32A93381
:1005B1001207CA8F4B8E4A8D498C4890000412074E
:1005C100EA8F4F8E4E8D4D8C4C9000081207EA8FAA
:1005D100538E528D518C5090000C1207EA8F578E1A
:1005E100568D558C54E4F543F542F541F540E47FD1
:1005F10020FEFDFCAB43AA42A941A840C3120793C8
:10060100400302074CAF37AE36AD35AC3478041237
:1006110007B7EF2553FBEE3552FAED3551F9EC35BD
:1006210050F8E537253FFFE536353EFEE535353DEA
:10063100FDE534353CFCEB6FFFEA6EFEE96DFDE84C
:100641006CFCC004C005C006C007AF37AE36AD357F
:10065100AC3478051207A4EF2557FFEE3556FEEDB1
:100661003555FDEC3554FCD003D002D001D000EF5C
:100671006BFBEE6AFAED69F9EC68F8C3E53B9BF5B3
:100681003BE53A9AF53AE53999F539E53898F5387F
:10069100AF3BAE3AAD39FC78041207B7EF254BFBFF
:1006A100EE354AFAED3549F9EC3548F8E53B253F99
:1006B100FFE53A353EFEE539353DFDE538353CFC93
:1006C100EB6FFFEA6EFEE96DFDE86CFCC004C0054E
:1006D100C006C007AF3BAE3AAD39AC38780512075A
:1006E100A4EF254FFFEE354EFEED354DFDEC354CBB
:1006F100FCD003D002D001D000EF6BFBEE6AFAED23
:1007010069F9EC68F8C3E5379BF537E5369AF536B4
:10071100E53599F535E53498F534C3E53F9547F569
:100721003FE53E9546F53EE53D9545F53DE53C9574
:1007310044F53CE5432401F543E43542F542E43513
:1007410041F541E43540F5400205EFAF37AE36AD36
:1007510035AC34AB2EAA2FA93012081AAF3BAE3AF2
:10076100AD39AC38AB2EAA2FA93090000402083461
:0A0A72008B228A2389248C258D260F
:100A7C00E4F52AF52BF52CF52DE52654076004E456
:100A8C00FEFF22E526AE257803CEC313CE13D8F98C
:100A9C00F52D8E2CE4F52AF52BC3E52B952DE52AA7
:100AAC00952C502CE52BAE2A7803C333CE33CED8FD
:100ABC00F9AB222524F9E5233EFA85273185283226
:100ACC0085293312056B052BE52B70CD052A80C9C2
:040ADC00AE25AF266E
:010AE00022F3
:100AE100E4FFFEEF2430FD740B2FF8A6050FBF00C5
:100AF100010EEF64084E70EB120BA28508278509E1
:100B010028850A297B007A00790B7D087C0012096F
:100B11003E755B00755C00755D0B7BFF7A0B79742C
:100B2100120065850827850928850A297B007A0036
:100B3100790B7D087C00120A72755B00755C00758B
:0B0B41005D0B7BFF7A0B798B120065C7
:010B4C002286
:1009F200020AE1E493A3F8E493A34003F68001F230
:100A020008DFF48029E493A3F85407240CC8C33305
:100A1200C4540F4420C8834004F456800146F6DFD4
:100A2200E4800B0102040810204080900BC5E47E94
:100A3200019360BCA3FF543F30E509541FFEE493C9
:100A4200A360010ECF54C025E060A840B8E493A390
:100A5200FAE493A3F8E493A3C8C582C8CAC583CABB
:100A6200F0A3C8C582C8CAC583CADFE9DEE780BE73
:010BCA00002A
:10077100F8BB010DE58229F582E5833AF583E8F0BE
:10078100225006E92582C8F622BBFE05E92582C86A
:02079100F22252
:10079300EB9FF5F0EA9E42F0E99D42F0E89C45F0BC
:0107A3002233
:1007A400E8600FECC313FCED13FDEE13FEEF13FF33
:0307B400D8F12257
:1007B700E8600FEFC333FFEE33FEED33FDEC33FCA0
:0307C700D8F12244
:1007CA00BB010789828A830208BC5005E9F802083E
:1007DA00B0BBFE05E9F80208C889828A830208D4F8
:1007EA00BB010DE58229F582E5833AF5830208BC4F
:1007FA005007E92582F80208B0BBFE07E92582F80E
:10080A000208C8E58229F582E5833AF5830208D40D
:10081A00BB010789828A830208F05005E9F80208B9
:0A082A00E4BBFE05E9F80208FC2219
:10083400BB010DE58229F582E5833AF5830208F0D0
:100844005007E92582F80208E4BBFE07E92582F88F
:040854000208FC2278
:10000300E567245BF8E60567227858300702785BDA
:10001300E475F0011209080208582000EB7F2ED284
:10002300008018EF540F2490D43440D4FF30040BD5
:10003300EF24BFB41A0050032461FFE56860021582
:1000430068056BE56B7002056A30070D7858E47537
:10005300F001120908EF02089E020BBB7403D207DA
:100063008003E4C207F5678B588A59895AE4F56817
:10007300F56AF56BE56860077F2012003E80F57531
:1000830069FFC201C200C202C203C205C206C2089E
:1000930012000CFF700D3007057F0012004FAF6B8D
:1000A300AE6A22B4255FC2D5C20412000CFF24D06D
:1000B300B40A00501A75F00A786830D50508B6FFFF
:1000C3000106C6A426F620D5047002D20380D924E3
:1000D300CFB41A00EF5004C2E5D20402024FD2019A
:1000E30080C6D20080C0D20280BCD2D580BAD205ED
:1000F30080B47F2012003E2002077401B5680040DF
:10010300F1120003FF12003E020077D208D20680EC
:1001130095120003FB120003FA120003F94A4B7015
:100123000679207A037BFF20022EE568602A7E0091
:100133008E8275830012087160060EEE656970F099
:10014300C2D5EBC0E0EAC0E0E9C0E0EE120296D00F
:10015300E0F9D0E0FAD0E0FB120858FF60AAEBC048
:10016300E0EAC0E0E9C0E012003ED0E02401F9D0AB
:10017300E03400FAD0E0FBE5690460DCD569D9809E
:10018300877BFF7A027992D202809C791080027970
:1001930008C206C2088008D2D5790A8004790AC247
:1001A300D5E569047002F569E4FAFDFEFF12000368
:1001B300FC7B08200113120003FD7B1030000A12A0
:1001C3000003FE120003FF7B20EC3382D592D5504F
:1001D30013C3E43000069FFFE49EFEE42001039D69
:1001E300FDE49CFCE4CBF8C201EC700CCFCECDCC8B
:1001F300E824F8F870F38017C3EF33FFEE33FEED16
:1002030033FDEC33FCEB33FB994002FB0FD8E9EBF6
:10021300300105F8D0E0C448B201C0E00AEC4D4E0D
:100223004F78207B0070C2EAB5690040BCC0E01281
:100233000298D0F0D0E0200104C4C0E0C4B201C0F1
:10024300F0120027D0F0D5F0EB0200771209180165
:100253001453018E5800E54C00E14201924F019A7C
:0F02630044019A4900FA4301A0550184460184E1
:100272004501844703405000E92D00ED2E01102B6B
:1002820000F123010E2003292A00A94800000108D9
:100292003F3F3F00790AA2D5200314300509B91067
:1002A200020404B9080104A2D52006025001042068
:1002B20002689202B568005034C0E07F2030031912
:1002C2007F30A20272067205500F1202EFC202C202
:1002D20006C205C2087F30800F300503E9C0E01274
:1002E200003E300503D0E0F9D0E0B568CC30051708
:1002F2007F30B9100C12003E7F583004077F78809F
:1003020003B9080312003E3002057F2D02003E7F32
:10031200202008F87F2B2006F322920280CF286E3D
:10032200756C6C2900D2011200033001F8C2017809
:100332006830D50108F60200A92D50434958120031
:10034200032403B405004001E490033B9312002F01
:0D035200743A12002FD20375680402018E68
:10085800BB010689828A83E0225002E722BBFE029E
:09086800E32289828A83E49322D1
:10087100BB010CE58229F582E5833AF583E022503C
:1008810006E92582F8E622BBFE06E92582F8E22286
:0D089100E58229F582E5833AF583E49322A0
:10089E00BB010689828A83F0225002F722BBFE0139
:0208AE00F32233
:0C08B000E6FC08E6FD08E6FE08E6FF2274
:0C08BC00E0FCA3E0FDA3E0FEA3E0FF22AF
:0C08C800E2FC08E2FD08E2FE08E2FF226C
:1008D400E493FC740193FD740293FE740393FF226A
:0C08E400ECF608EDF608EEF608EFF62240
:0C08F000ECF0A3EDF0A3EEF0A3EFF0227B
:0C08FC00ECF208EDF208EEF208EFF22238
:10090800FAE6FB0808E6F925F0F618E6CA3AF622F0
:10091800D083D082F8E4937012740193700DA3A36E
:1009280093F8740193F5828883E473740293686082
:06093800EFA3A3A380DF82
:00000001FF
